{
  "_format": "hh-sol-artifact-1",
  "contractName": "Dappazon",
  "sourceName": "contracts/Dappazon.sol",
  "abi": [
    {
      "inputs": [],
      "stateMutability": "nonpayable",
      "type": "constructor"
    },
    {
      "anonymous": false,
      "inputs": [
        {
          "indexed": false,
          "internalType": "address",
          "name": "buyer",
          "type": "address"
        },
        {
          "indexed": false,
          "internalType": "uint256",
          "name": "orderId",
          "type": "uint256"
        },
        {
          "indexed": false,
          "internalType": "uint256",
          "name": "itemId",
          "type": "uint256"
        }
      ],
      "name": "Buy",
      "type": "event"
    },
    {
      "anonymous": false,
      "inputs": [
        {
          "indexed": false,
          "internalType": "string",
          "name": "name",
          "type": "string"
        },
        {
          "indexed": false,
          "internalType": "uint256",
          "name": "cost",
          "type": "uint256"
        },
        {
          "indexed": false,
          "internalType": "uint256",
          "name": "quantity",
          "type": "uint256"
        }
      ],
      "name": "List",
      "type": "event"
    },
    {
      "inputs": [
        {
          "internalType": "uint256",
          "name": "_id",
          "type": "uint256"
        }
      ],
      "name": "buy",
      "outputs": [],
      "stateMutability": "payable",
      "type": "function"
    },
    {
      "inputs": [
        {
          "internalType": "uint256",
          "name": "",
          "type": "uint256"
        }
      ],
      "name": "items",
      "outputs": [
        {
          "internalType": "uint256",
          "name": "id",
          "type": "uint256"
        },
        {
          "internalType": "string",
          "name": "name",
          "type": "string"
        },
        {
          "internalType": "string",
          "name": "category",
          "type": "string"
        },
        {
          "internalType": "string",
          "name": "image",
          "type": "string"
        },
        {
          "internalType": "uint256",
          "name": "cost",
          "type": "uint256"
        },
        {
          "internalType": "uint256",
          "name": "rating",
          "type": "uint256"
        },
        {
          "internalType": "uint256",
          "name": "stock",
          "type": "uint256"
        }
      ],
      "stateMutability": "view",
      "type": "function"
    },
    {
      "inputs": [
        {
          "internalType": "uint256",
          "name": "_id",
          "type": "uint256"
        },
        {
          "internalType": "string",
          "name": "_name",
          "type": "string"
        },
        {
          "internalType": "string",
          "name": "_category",
          "type": "string"
        },
        {
          "internalType": "string",
          "name": "_image",
          "type": "string"
        },
        {
          "internalType": "uint256",
          "name": "_cost",
          "type": "uint256"
        },
        {
          "internalType": "uint256",
          "name": "_rating",
          "type": "uint256"
        },
        {
          "internalType": "uint256",
          "name": "_stock",
          "type": "uint256"
        }
      ],
      "name": "list",
      "outputs": [],
      "stateMutability": "nonpayable",
      "type": "function"
    },
    {
      "inputs": [
        {
          "internalType": "address",
          "name": "",
          "type": "address"
        }
      ],
      "name": "orderCount",
      "outputs": [
        {
          "internalType": "uint256",
          "name": "",
          "type": "uint256"
        }
      ],
      "stateMutability": "view",
      "type": "function"
    },
    {
      "inputs": [
        {
          "internalType": "address",
          "name": "",
          "type": "address"
        },
        {
          "internalType": "uint256",
          "name": "",
          "type": "uint256"
        }
      ],
      "name": "orders",
      "outputs": [
        {
          "internalType": "uint256",
          "name": "time",
          "type": "uint256"
        },
        {
          "components": [
            {
              "internalType": "uint256",
              "name": "id",
              "type": "uint256"
            },
            {
              "internalType": "string",
              "name": "name",
              "type": "string"
            },
            {
              "internalType": "string",
              "name": "category",
              "type": "string"
            },
            {
              "internalType": "string",
              "name": "image",
              "type": "string"
            },
            {
              "internalType": "uint256",
              "name": "cost",
              "type": "uint256"
            },
            {
              "internalType": "uint256",
              "name": "rating",
              "type": "uint256"
            },
            {
              "internalType": "uint256",
              "name": "stock",
              "type": "uint256"
            }
          ],
          "internalType": "struct Dappazon.Item",
          "name": "item",
          "type": "tuple"
        }
      ],
      "stateMutability": "view",
      "type": "function"
    },
    {
      "inputs": [],
      "name": "owner",
      "outputs": [
        {
          "internalType": "address",
          "name": "",
          "type": "address"
        }
      ],
      "stateMutability": "view",
      "type": "function"
    },
    {
      "inputs": [],
      "name": "withdraw",
      "outputs": [],
      "stateMutability": "nonpayable",
      "type": "function"
    }
  ],
  "bytecode": "0x608060405234801561001057600080fd5b50336000806101000a81548173ffffffffffffffffffffffffffffffffffffffff021916908373ffffffffffffffffffffffffffffffffffffffff1602179055506116f8806100606000396000f3fe6080604052600436106100705760003560e01c80638da5cb5b1161004e5780638da5cb5b14610107578063bfb231d214610132578063d96a094a14610175578063eea8a7e81461019157610070565b80633ccfd60b14610075578063713d856b1461008c578063793b8c6d146100c9575b600080fd5b34801561008157600080fd5b5061008a6101ba565b005b34801561009857600080fd5b506100b360048036038101906100ae9190610cf3565b6102ac565b6040516100c09190610d39565b60405180910390f35b3480156100d557600080fd5b506100f060048036038101906100eb9190610d80565b6102c4565b6040516100fe929190610f09565b60405180910390f35b34801561011357600080fd5b5061011c6104dd565b6040516101299190610f48565b60405180910390f35b34801561013e57600080fd5b5061015960048036038101906101549190610f63565b610501565b60405161016c9796959493929190610fda565b60405180910390f35b61018f600480360381019061018a9190610f63565b6106db565b005b34801561019d57600080fd5b506101b860048036038101906101b39190611193565b610b2c565b005b60008054906101000a900473ffffffffffffffffffffffffffffffffffffffff1673ffffffffffffffffffffffffffffffffffffffff163373ffffffffffffffffffffffffffffffffffffffff161461021257600080fd5b60008060009054906101000a900473ffffffffffffffffffffffffffffffffffffffff1673ffffffffffffffffffffffffffffffffffffffff1647604051610259906112ba565b60006040518083038185875af1925050503d8060008114610296576040519150601f19603f3d011682016040523d82523d6000602084013e61029b565b606091505b50509050806102a957600080fd5b50565b60026020528060005260406000206000915090505481565b600360205281600052604060002060205280600052604060002060009150915050806000015490806001016040518060e001604052908160008201548152602001600182018054610314906112fe565b80601f0160208091040260200160405190810160405280929190818152602001828054610340906112fe565b801561038d5780601f106103625761010080835404028352916020019161038d565b820191906000526020600020905b81548152906001019060200180831161037057829003601f168201915b505050505081526020016002820180546103a6906112fe565b80601f01602080910402602001604051908101604052809291908181526020018280546103d2906112fe565b801561041f5780601f106103f45761010080835404028352916020019161041f565b820191906000526020600020905b81548152906001019060200180831161040257829003601f168201915b50505050508152602001600382018054610438906112fe565b80601f0160208091040260200160405190810160405280929190818152602001828054610464906112fe565b80156104b15780601f10610486576101008083540402835291602001916104b1565b820191906000526020600020905b81548152906001019060200180831161049457829003601f168201915b505050505081526020016004820154815260200160058201548152602001600682015481525050905082565b60008054906101000a900473ffffffffffffffffffffffffffffffffffffffff1681565b600160205280600052604060002060009150905080600001549080600101805461052a906112fe565b80601f0160208091040260200160405190810160405280929190818152602001828054610556906112fe565b80156105a35780601f10610578576101008083540402835291602001916105a3565b820191906000526020600020905b81548152906001019060200180831161058657829003601f168201915b5050505050908060020180546105b8906112fe565b80601f01602080910402602001604051908101604052809291908181526020018280546105e4906112fe565b80156106315780601f1061060657610100808354040283529160200191610631565b820191906000526020600020905b81548152906001019060200180831161061457829003601f168201915b505050505090806003018054610646906112fe565b80601f0160208091040260200160405190810160405280929190818152602001828054610672906112fe565b80156106bf5780601f10610694576101008083540402835291602001916106bf565b820191906000526020600020905b8154815290600101906020018083116106a257829003601f168201915b5050505050908060040154908060050154908060060154905087565b6000600160008381526020019081526020016000206040518060e001604052908160008201548152602001600182018054610715906112fe565b80601f0160208091040260200160405190810160405280929190818152602001828054610741906112fe565b801561078e5780601f106107635761010080835404028352916020019161078e565b820191906000526020600020905b81548152906001019060200180831161077157829003601f168201915b505050505081526020016002820180546107a7906112fe565b80601f01602080910402602001604051908101604052809291908181526020018280546107d3906112fe565b80156108205780601f106107f557610100808354040283529160200191610820565b820191906000526020600020905b81548152906001019060200180831161080357829003601f168201915b50505050508152602001600382018054610839906112fe565b80601f0160208091040260200160405190810160405280929190818152602001828054610865906112fe565b80156108b25780601f10610887576101008083540402835291602001916108b2565b820191906000526020600020905b81548152906001019060200180831161089557829003601f168201915b505050505081526020016004820154815260200160058201548152602001600682015481525050905080608001513410156108ec57600080fd5b60008160c00151116108fd57600080fd5b60006040518060400160405280428152602001838152509050600260003373ffffffffffffffffffffffffffffffffffffffff1673ffffffffffffffffffffffffffffffffffffffff16815260200190815260200160002060008154809291906109669061135e565b919050555080600360003373ffffffffffffffffffffffffffffffffffffffff1673ffffffffffffffffffffffffffffffffffffffff1681526020019081526020016000206000600260003373ffffffffffffffffffffffffffffffffffffffff1673ffffffffffffffffffffffffffffffffffffffff16815260200190815260200160002054815260200190815260200160002060008201518160000155602082015181600101600082015181600001556020820151816001019081610a2d9190611552565b506040820151816002019081610a439190611552565b506060820151816003019081610a599190611552565b506080820151816004015560a0820151816005015560c082015181600601555050905050600160008481526020019081526020016000206006016000815480929190610aa490611624565b91905055507f1cbc5ab135991bd2b6a4b034a04aa2aa086dac1371cb9b16b8b5e2ed6b036bed33600260003373ffffffffffffffffffffffffffffffffffffffff1673ffffffffffffffffffffffffffffffffffffffff168152602001908152602001600020548460000151604051610b1f9392919061164d565b60405180910390a1505050565b60008054906101000a900473ffffffffffffffffffffffffffffffffffffffff1673ffffffffffffffffffffffffffffffffffffffff163373ffffffffffffffffffffffffffffffffffffffff1614610b8457600080fd5b60006040518060e0016040528089815260200188815260200187815260200186815260200185815260200184815260200183815250905080600160008a8152602001908152602001600020600082015181600001556020820151816001019081610bee9190611552565b506040820151816002019081610c049190611552565b506060820151816003019081610c1a9190611552565b506080820151816004015560a0820151816005015560c082015181600601559050507ffdbe2a012c10ec01592653978eaa09b5ca60b143a0e617505b2ebcbd911ec5b8878584604051610c6f93929190611684565b60405180910390a15050505050505050565b6000604051905090565b600080fd5b600080fd5b600073ffffffffffffffffffffffffffffffffffffffff82169050919050565b6000610cc082610c95565b9050919050565b610cd081610cb5565b8114610cdb57600080fd5b50565b600081359050610ced81610cc7565b92915050565b600060208284031215610d0957610d08610c8b565b5b6000610d1784828501610cde565b91505092915050565b6000819050919050565b610d3381610d20565b82525050565b6000602082019050610d4e6000830184610d2a565b92915050565b610d5d81610d20565b8114610d6857600080fd5b50565b600081359050610d7a81610d54565b92915050565b60008060408385031215610d9757610d96610c8b565b5b6000610da585828601610cde565b9250506020610db685828601610d6b565b9150509250929050565b610dc981610d20565b82525050565b600081519050919050565b600082825260208201905092915050565b60005b83811015610e09578082015181840152602081019050610dee565b60008484015250505050565b6000601f19601f8301169050919050565b6000610e3182610dcf565b610e3b8185610dda565b9350610e4b818560208601610deb565b610e5481610e15565b840191505092915050565b600060e083016000830151610e776000860182610dc0565b5060208301518482036020860152610e8f8282610e26565b91505060408301518482036040860152610ea98282610e26565b91505060608301518482036060860152610ec38282610e26565b9150506080830151610ed86080860182610dc0565b5060a0830151610eeb60a0860182610dc0565b5060c0830151610efe60c0860182610dc0565b508091505092915050565b6000604082019050610f1e6000830185610d2a565b8181036020830152610f308184610e5f565b90509392505050565b610f4281610cb5565b82525050565b6000602082019050610f5d6000830184610f39565b92915050565b600060208284031215610f7957610f78610c8b565b5b6000610f8784828501610d6b565b91505092915050565b600082825260208201905092915050565b6000610fac82610dcf565b610fb68185610f90565b9350610fc6818560208601610deb565b610fcf81610e15565b840191505092915050565b600060e082019050610fef600083018a610d2a565b81810360208301526110018189610fa1565b905081810360408301526110158188610fa1565b905081810360608301526110298187610fa1565b90506110386080830186610d2a565b61104560a0830185610d2a565b61105260c0830184610d2a565b98975050505050505050565b600080fd5b600080fd5b7f4e487b7100000000000000000000000000000000000000000000000000000000600052604160045260246000fd5b6110a082610e15565b810181811067ffffffffffffffff821117156110bf576110be611068565b5b80604052505050565b60006110d2610c81565b90506110de8282611097565b919050565b600067ffffffffffffffff8211156110fe576110fd611068565b5b61110782610e15565b9050602081019050919050565b82818337600083830152505050565b6000611136611131846110e3565b6110c8565b90508281526020810184848401111561115257611151611063565b5b61115d848285611114565b509392505050565b600082601f83011261117a5761117961105e565b5b813561118a848260208601611123565b91505092915050565b600080600080600080600060e0888a0312156111b2576111b1610c8b565b5b60006111c08a828b01610d6b565b975050602088013567ffffffffffffffff8111156111e1576111e0610c90565b5b6111ed8a828b01611165565b965050604088013567ffffffffffffffff81111561120e5761120d610c90565b5b61121a8a828b01611165565b955050606088013567ffffffffffffffff81111561123b5761123a610c90565b5b6112478a828b01611165565b94505060806112588a828b01610d6b565b93505060a06112698a828b01610d6b565b92505060c061127a8a828b01610d6b565b91505092959891949750929550565b600081905092915050565b50565b60006112a4600083611289565b91506112af82611294565b600082019050919050565b60006112c582611297565b9150819050919050565b7f4e487b7100000000000000000000000000000000000000000000000000000000600052602260045260246000fd5b6000600282049050600182168061131657607f821691505b602082108103611329576113286112cf565b5b50919050565b7f4e487b7100000000000000000000000000000000000000000000000000000000600052601160045260246000fd5b600061136982610d20565b91507fffffffffffffffffffffffffffffffffffffffffffffffffffffffffffffffff820361139b5761139a61132f565b5b600182019050919050565b60008190508160005260206000209050919050565b60006020601f8301049050919050565b600082821b905092915050565b6000600883026114087fffffffffffffffffffffffffffffffffffffffffffffffffffffffffffffffff826113cb565b61141286836113cb565b95508019841693508086168417925050509392505050565b6000819050919050565b600061144f61144a61144584610d20565b61142a565b610d20565b9050919050565b6000819050919050565b61146983611434565b61147d61147582611456565b8484546113d8565b825550505050565b600090565b611492611485565b61149d818484611460565b505050565b5b818110156114c1576114b660008261148a565b6001810190506114a3565b5050565b601f821115611506576114d7816113a6565b6114e0846113bb565b810160208510156114ef578190505b6115036114fb856113bb565b8301826114a2565b50505b505050565b600082821c905092915050565b60006115296000198460080261150b565b1980831691505092915050565b60006115428383611518565b9150826002028217905092915050565b61155b82610dcf565b67ffffffffffffffff81111561157457611573611068565b5b61157e82546112fe565b6115898282856114c5565b600060209050601f8311600181146115bc57600084156115aa578287015190505b6115b48582611536565b86555061161c565b601f1984166115ca866113a6565b60005b828110156115f2578489015182556001820191506020850194506020810190506115cd565b8683101561160f578489015161160b601f891682611518565b8355505b6001600288020188555050505b505050505050565b600061162f82610d20565b9150600082036116425761164161132f565b5b600182039050919050565b60006060820190506116626000830186610f39565b61166f6020830185610d2a565b61167c6040830184610d2a565b949350505050565b6000606082019050818103600083015261169e8186610fa1565b90506116ad6020830185610d2a565b6116ba6040830184610d2a565b94935050505056fea26469706673582212203acc37d06ca51a32ff04007918ae8a08c9bcc294e4657f93ae04bb76624d750664736f6c63430008110033",
  "linkReferences": {},
  "deployedLinkReferences": {}
}